{
  "contractName": "Voting",
  "abi": [
    {
      "constant": true,
      "inputs": [
        {
          "name": "",
          "type": "uint256"
        }
      ],
      "name": "ballots",
      "outputs": [
        {
          "name": "id",
          "type": "uint256"
        },
        {
          "name": "name",
          "type": "string"
        },
        {
          "name": "end",
          "type": "uint256"
        }
      ],
      "payable": false,
      "stateMutability": "view",
      "type": "function"
    },
    {
      "constant": true,
      "inputs": [
        {
          "name": "",
          "type": "address"
        },
        {
          "name": "",
          "type": "uint256"
        }
      ],
      "name": "votes",
      "outputs": [
        {
          "name": "",
          "type": "bool"
        }
      ],
      "payable": false,
      "stateMutability": "view",
      "type": "function"
    },
    {
      "constant": true,
      "inputs": [
        {
          "name": "",
          "type": "address"
        }
      ],
      "name": "voters",
      "outputs": [
        {
          "name": "",
          "type": "bool"
        }
      ],
      "payable": false,
      "stateMutability": "view",
      "type": "function"
    },
    {
      "constant": true,
      "inputs": [],
      "name": "nextBallotId",
      "outputs": [
        {
          "name": "",
          "type": "uint256"
        }
      ],
      "payable": false,
      "stateMutability": "view",
      "type": "function"
    },
    {
      "constant": true,
      "inputs": [],
      "name": "admin",
      "outputs": [
        {
          "name": "",
          "type": "address"
        }
      ],
      "payable": false,
      "stateMutability": "view",
      "type": "function"
    },
    {
      "inputs": [],
      "payable": false,
      "stateMutability": "nonpayable",
      "type": "constructor"
    },
    {
      "constant": true,
      "inputs": [
        {
          "name": "id",
          "type": "uint256"
        }
      ],
      "name": "getBallot",
      "outputs": [
        {
          "components": [
            {
              "name": "id",
              "type": "uint256"
            },
            {
              "name": "name",
              "type": "string"
            },
            {
              "components": [
                {
                  "name": "id",
                  "type": "uint256"
                },
                {
                  "name": "name",
                  "type": "string"
                },
                {
                  "name": "votes",
                  "type": "uint256"
                }
              ],
              "name": "choices",
              "type": "tuple[]"
            },
            {
              "name": "end",
              "type": "uint256"
            }
          ],
          "name": "",
          "type": "tuple"
        }
      ],
      "payable": false,
      "stateMutability": "view",
      "type": "function"
    },
    {
      "constant": false,
      "inputs": [
        {
          "name": "_voters",
          "type": "address[]"
        }
      ],
      "name": "addVoters",
      "outputs": [],
      "payable": false,
      "stateMutability": "nonpayable",
      "type": "function"
    },
    {
      "constant": false,
      "inputs": [
        {
          "name": "name",
          "type": "string"
        },
        {
          "name": "_choices",
          "type": "string[]"
        },
        {
          "name": "offset",
          "type": "uint256"
        }
      ],
      "name": "createBallot",
      "outputs": [],
      "payable": false,
      "stateMutability": "nonpayable",
      "type": "function"
    },
    {
      "constant": false,
      "inputs": [
        {
          "name": "ballotId",
          "type": "uint256"
        },
        {
          "name": "choiceId",
          "type": "uint256"
        }
      ],
      "name": "vote",
      "outputs": [],
      "payable": false,
      "stateMutability": "nonpayable",
      "type": "function"
    },
    {
      "constant": true,
      "inputs": [
        {
          "name": "ballotId",
          "type": "uint256"
        }
      ],
      "name": "results",
      "outputs": [
        {
          "components": [
            {
              "name": "id",
              "type": "uint256"
            },
            {
              "name": "name",
              "type": "string"
            },
            {
              "name": "votes",
              "type": "uint256"
            }
          ],
          "name": "",
          "type": "tuple[]"
        }
      ],
      "payable": false,
      "stateMutability": "view",
      "type": "function"
    }
  ],
  "bytecode": "0x608060405234801561001057600080fd5b5033600360006101000a81548173ffffffffffffffffffffffffffffffffffffffff021916908373ffffffffffffffffffffffffffffffffffffffff1602179055506117ad806100616000396000f3fe608060405234801561001057600080fd5b50600436106100bb576000357c010000000000000000000000000000000000000000000000000000000090048063a3ec138d11610083578063a3ec138d1461018a578063b384abef146101ba578063dc6bfbb5146101d6578063f851a440146101f4578063f9d5ee7514610212576100bb565b80631b0c27da146100c057806320faae8e146100f05780635c632b381461010c5780638203373a1461013e5780639f2524ee1461015a575b600080fd5b6100da60048036036100d59190810190611064565b610242565b6040516100e79190611462565b60405180910390f35b61010a60048036036101059190810190610fe5565b6103c9565b005b61012660048036036101219190810190611064565b6105a5565b6040516101359392919061157c565b60405180910390f35b61015860048036036101539190810190610fa0565b610667565b005b610174600480360361016f9190810190610f64565b61079d565b6040516101819190611484565b60405180910390f35b6101a4600480360361019f9190810190610f3b565b6107cc565b6040516101b19190611484565b60405180910390f35b6101d460048036036101cf919081019061108d565b6107ec565b005b6101de610a31565b6040516101eb9190611561565b60405180910390f35b6101fc610a37565b6040516102099190611447565b60405180910390f35b61022c60048036036102279190810190611064565b610a5d565b604051610239919061153f565b60405180910390f35b60606001600083815260200190815260200160002060030154421015151561029f576040517f08c379a00000000000000000000000000000000000000000000000000000000081526004016102969061151f565b60405180910390fd5b60016000838152602001908152602001600020600201805480602002602001604051908101604052809291908181526020016000905b828210156103be57838290600052602060002090600302016060604051908101604052908160008201548152602001600182018054600181600116156101000203166002900480601f01602080910402602001604051908101604052809291908181526020018280546001816001161561010002031660029004801561039c5780601f106103715761010080835404028352916020019161039c565b820191906000526020600020905b81548152906001019060200180831161037f57829003601f168201915b50505050508152602001600282015481525050815260200190600101906102d5565b505050509050919050565b600360009054906101000a900473ffffffffffffffffffffffffffffffffffffffff1673ffffffffffffffffffffffffffffffffffffffff163373ffffffffffffffffffffffffffffffffffffffff1614151561045b576040517f08c379a0000000000000000000000000000000000000000000000000000000008152600401610452906114df565b60405180910390fd5b600254600160006002548152602001908152602001600020600001819055508260016000600254815260200190815260200160002060010190805190602001906104a6929190610c57565b508042016001600060025481526020019081526020016000206003018190555060008090505b825181101561058d57600160006002548152602001908152602001600020600201606060405190810160405280838152602001858481518110151561050d57fe5b906020019060200201518152602001600081525090806001815401808255809150509060018203906000526020600020906003020160009091929091909150600082015181600001556020820151816001019080519060200190610572929190610cd7565b506040820151816002015550505080806001019150506104cc565b50600260008154809291906001019190505550505050565b6001602052806000526040600020600091509050806000015490806001018054600181600116156101000203166002900480601f0160208091040260200160405190810160405280929190818152602001828054600181600116156101000203166002900480156106575780601f1061062c57610100808354040283529160200191610657565b820191906000526020600020905b81548152906001019060200180831161063a57829003601f168201915b5050505050908060030154905083565b600360009054906101000a900473ffffffffffffffffffffffffffffffffffffffff1673ffffffffffffffffffffffffffffffffffffffff163373ffffffffffffffffffffffffffffffffffffffff161415156106f9576040517f08c379a00000000000000000000000000000000000000000000000000000000081526004016106f0906114df565b60405180910390fd5b60008090505b82829050811015610798576001600080858585818110151561071d57fe5b9050602002013573ffffffffffffffffffffffffffffffffffffffff1673ffffffffffffffffffffffffffffffffffffffff1673ffffffffffffffffffffffffffffffffffffffff16815260200190815260200160002060006101000a81548160ff02191690831515021790555080806001019150506106ff565b505050565b60046020528160005260406000206020528060005260406000206000915091509054906101000a900460ff1681565b60006020528060005260406000206000915054906101000a900460ff1681565b600115156000803373ffffffffffffffffffffffffffffffffffffffff1673ffffffffffffffffffffffffffffffffffffffff16815260200190815260200160002060009054906101000a900460ff161515141515610880576040517f08c379a0000000000000000000000000000000000000000000000000000000008152600401610877906114ff565b60405180910390fd5b60001515600460003373ffffffffffffffffffffffffffffffffffffffff1673ffffffffffffffffffffffffffffffffffffffff168152602001908152602001600020600084815260200190815260200160002060009054906101000a900460ff161515141515610926576040517f08c379a000000000000000000000000000000000000000000000000000000000815260040161091d9061149f565b60405180910390fd5b600160008381526020019081526020016000206003015442101515610980576040517f08c379a0000000000000000000000000000000000000000000000000000000008152600401610977906114bf565b60405180910390fd5b6001600460003373ffffffffffffffffffffffffffffffffffffffff1673ffffffffffffffffffffffffffffffffffffffff168152602001908152602001600020600084815260200190815260200160002060006101000a81548160ff0219169083151502179055506001600083815260200190815260200160002060020181815481101515610a0c57fe5b9060005260206000209060030201600201600081548092919060010191905055505050565b60025481565b600360009054906101000a900473ffffffffffffffffffffffffffffffffffffffff1681565b610a65610d57565b600160008381526020019081526020016000206080604051908101604052908160008201548152602001600182018054600181600116156101000203166002900480601f016020809104026020016040519081016040528092919081815260200182805460018160011615610100020316600290048015610b275780601f10610afc57610100808354040283529160200191610b27565b820191906000526020600020905b815481529060010190602001808311610b0a57829003601f168201915b5050505050815260200160028201805480602002602001604051908101604052809291908181526020016000905b82821015610c3e57838290600052602060002090600302016060604051908101604052908160008201548152602001600182018054600181600116156101000203166002900480601f016020809104026020016040519081016040528092919081815260200182805460018160011615610100020316600290048015610c1c5780601f10610bf157610100808354040283529160200191610c1c565b820191906000526020600020905b815481529060010190602001808311610bff57829003601f168201915b5050505050815260200160028201548152505081526020019060010190610b55565b5050505081526020016003820154815250509050919050565b828054600181600116156101000203166002900490600052602060002090601f016020900481019282601f10610c9857805160ff1916838001178555610cc6565b82800160010185558215610cc6579182015b82811115610cc5578251825591602001919060010190610caa565b5b509050610cd39190610d80565b5090565b828054600181600116156101000203166002900490600052602060002090601f016020900481019282601f10610d1857805160ff1916838001178555610d46565b82800160010185558215610d46579182015b82811115610d45578251825591602001919060010190610d2a565b5b509050610d539190610d80565b5090565b608060405190810160405280600081526020016060815260200160608152602001600081525090565b610da291905b80821115610d9e576000816000905550600101610d86565b5090565b90565b6000610db18235611704565b905092915050565b60008083601f8401121515610dcd57600080fd5b8235905067ffffffffffffffff811115610de657600080fd5b602083019150836020820283011115610dfe57600080fd5b9250929050565b600082601f8301121515610e1857600080fd5b8135610e2b610e26826115e7565b6115ba565b9150818183526020840193506020810190508360005b83811015610e715781358601610e578882610e7b565b845260208401935060208301925050600181019050610e41565b5050505092915050565b600082601f8301121515610e8e57600080fd5b8135610ea1610e9c8261160f565b6115ba565b91508082526020830160208301858383011115610ebd57600080fd5b610ec8838284611720565b50505092915050565b600082601f8301121515610ee457600080fd5b8135610ef7610ef28261163b565b6115ba565b91508082526020830160208301858383011115610f1357600080fd5b610f1e838284611720565b50505092915050565b6000610f338235611716565b905092915050565b600060208284031215610f4d57600080fd5b6000610f5b84828501610da5565b91505092915050565b60008060408385031215610f7757600080fd5b6000610f8585828601610da5565b9250506020610f9685828601610f27565b9150509250929050565b60008060208385031215610fb357600080fd5b600083013567ffffffffffffffff811115610fcd57600080fd5b610fd985828601610db9565b92509250509250929050565b600080600060608486031215610ffa57600080fd5b600084013567ffffffffffffffff81111561101457600080fd5b61102086828701610ed1565b935050602084013567ffffffffffffffff81111561103d57600080fd5b61104986828701610e05565b925050604061105a86828701610f27565b9150509250925092565b60006020828403121561107657600080fd5b600061108484828501610f27565b91505092915050565b600080604083850312156110a057600080fd5b60006110ae85828601610f27565b92505060206110bf85828601610f27565b9150509250929050565b6110d2816116bc565b82525050565b60006110e38261168c565b808452602084019350836020820285016110fc85611674565b60005b848110156111355783830388526111178383516113e8565b9250611122826116af565b91506020880197506001810190506110ff565b508196508694505050505092915050565b600061115182611681565b8084526020840193508360208202850161116a85611667565b60005b848110156111a35783830388526111858383516113e8565b9250611190826116a2565b915060208801975060018101905061116d565b508196508694505050505092915050565b6111bd816116ce565b82525050565b60006111ce82611697565b8084526111e281602086016020860161172f565b6111eb81611762565b602085010191505092915050565b6000602582527f766f7465722063616e206f6e6c7920766f7465206f6e636520666f722061206260208301527f616c6c6f740000000000000000000000000000000000000000000000000000006040830152606082019050919050565b6000602382527f63616e206f6e6c7920766f746520756e74696c2062616c6c6f7420656e64206460208301527f61746500000000000000000000000000000000000000000000000000000000006040830152606082019050919050565b6000600a82527f6f6e6c792061646d696e000000000000000000000000000000000000000000006020830152604082019050919050565b6000601482527f6f6e6c7920766f746572732063616e20766f74650000000000000000000000006020830152604082019050919050565b6000602e82527f63616e6e6f7420736565207468652062616c6c6f7420726573756c742062656660208301527f6f72652062616c6c6f7420656e640000000000000000000000000000000000006040830152606082019050919050565b60006080830160008301516113966000860182611438565b50602083015184820360208601526113ae82826111c3565b915050604083015184820360408601526113c88282611146565b91505060608301516113dd6060860182611438565b508091505092915050565b60006060830160008301516114006000860182611438565b506020830151848203602086015261141882826111c3565b915050604083015161142d6040860182611438565b508091505092915050565b611441816116fa565b82525050565b600060208201905061145c60008301846110c9565b92915050565b6000602082019050818103600083015261147c81846110d8565b905092915050565b600060208201905061149960008301846111b4565b92915050565b600060208201905081810360008301526114b8816111f9565b9050919050565b600060208201905081810360008301526114d881611256565b9050919050565b600060208201905081810360008301526114f8816112b3565b9050919050565b60006020820190508181036000830152611518816112ea565b9050919050565b6000602082019050818103600083015261153881611321565b9050919050565b60006020820190508181036000830152611559818461137e565b905092915050565b60006020820190506115766000830184611438565b92915050565b60006060820190506115916000830186611438565b81810360208301526115a381856111c3565b90506115b26040830184611438565b949350505050565b6000604051905081810181811067ffffffffffffffff821117156115dd57600080fd5b8060405250919050565b600067ffffffffffffffff8211156115fe57600080fd5b602082029050602081019050919050565b600067ffffffffffffffff82111561162657600080fd5b601f19601f8301169050602081019050919050565b600067ffffffffffffffff82111561165257600080fd5b601f19601f8301169050602081019050919050565b6000602082019050919050565b6000602082019050919050565b600081519050919050565b600081519050919050565b600081519050919050565b6000602082019050919050565b6000602082019050919050565b60006116c7826116da565b9050919050565b60008115159050919050565b600073ffffffffffffffffffffffffffffffffffffffff82169050919050565b6000819050919050565b600061170f826116da565b9050919050565b6000819050919050565b82818337600083830152505050565b60005b8381101561174d578082015181840152602081019050611732565b8381111561175c576000848401525b50505050565b6000601f19601f830116905091905056fea265627a7a7230582063fa32c699e37e9bb6e37e5e268be5529fcee3ae0b1075a7da257f260919c2156c6578706572696d656e74616cf50037",
  "source": "pragma solidity ^0.5.2;\r\npragma experimental ABIEncoderV2;\r\n\r\ncontract Voting {\r\n    mapping(address => bool) public voters;\r\n    struct Choice {\r\n        uint256 id;\r\n        string name;\r\n        uint256 votes;\r\n    }\r\n    struct Ballot {\r\n        uint256 id;\r\n        string name;\r\n        Choice[] choices;\r\n        uint256 end; //time stamp in seconds\r\n    }\r\n\r\n    mapping(uint256 => Ballot) public ballots;\r\n    uint256 public nextBallotId;\r\n    address public admin;\r\n    mapping(address => mapping(uint256 => bool)) public votes;\r\n\r\n    constructor() public {\r\n        admin = msg.sender;\r\n    }\r\n\r\n    function getBallot(uint256 id) external view returns (Ballot memory) {\r\n        return ballots[id];\r\n    }\r\n\r\n    function addVoters(address[] calldata _voters) external onlyAdmin {\r\n        for (uint256 i = 0; i < _voters.length; i++) {\r\n            voters[_voters[i]] = true;\r\n        }\r\n    }\r\n\r\n    function createBallot(\r\n        string memory name,\r\n        string[] memory _choices,\r\n        uint256 offset\r\n    ) public onlyAdmin {\r\n        ballots[nextBallotId].id = nextBallotId;\r\n        ballots[nextBallotId].name = name;\r\n        ballots[nextBallotId].end = now + offset;\r\n        for (uint256 i = 0; i < _choices.length; i++) {\r\n            ballots[nextBallotId].choices.push(Choice(i, _choices[i], 0));\r\n        }\r\n        nextBallotId++;\r\n    }\r\n\r\n    function vote(uint256 ballotId, uint256 choiceId) external {\r\n        require(voters[msg.sender] == true, \"only voters can vote\");\r\n        require(\r\n            votes[msg.sender][ballotId] == false,\r\n            \"voter can only vote once for a ballot\"\r\n        );\r\n        require(\r\n            now < ballots[ballotId].end,\r\n            \"can only vote until ballot end date\"\r\n        );\r\n        votes[msg.sender][ballotId] = true;\r\n        ballots[ballotId].choices[choiceId].votes++;\r\n    }\r\n\r\n    //If `pragma experimental ABIEncoderV2`\r\n    function results(uint256 ballotId) external view returns (Choice[] memory) {\r\n        require(\r\n            now >= ballots[ballotId].end,\r\n            \"cannot see the ballot result before ballot end\"\r\n        );\r\n        return ballots[ballotId].choices;\r\n    }\r\n\r\n    //If no `pragma experimental ABIEncoderV2`\r\n    //function results(uint ballotId)\r\n    //  view\r\n    //  external\r\n    //  returns(uint[] memory, string[] memory, uint[]memory) {\r\n    //  require(now >= ballots[ballotId].end, 'can only see result after ballot end');\r\n    //  Choice[] storage choices = ballots[ballotId].choices;\r\n    //  uint[] memory ids = new uint[](choices.length);\r\n    //  string[] memory names = new string[](choices.length);\r\n    //  uint[] memory votes = new uint[](choices.length);\r\n    //  for(uint i = 0; i < choices.length; i++) {\r\n    //    ids[i] = choices[i].id;\r\n    //    names[i] = choices[i].name;\r\n    //    votes[i] = choices[i].votes;\r\n    //  }\r\n    //  return(ids, names, votes);\r\n    //}\r\n\r\n    modifier onlyAdmin() {\r\n        require(msg.sender == admin, \"only admin\");\r\n        _;\r\n    }\r\n}\r\n",
  "sourcePath": "D:\\Github\\voting\\contracts\\Voting.sol",
  "compiler": {
    "name": "solc",
    "version": "0.5.2+commit.1df8f40c.Emscripten.clang"
  },
  "schemaVersion": "3.4.3",
  "updatedAt": "2022-04-16T18:27:33.754Z",
  "networkType": "ethereum",
  "devdoc": {
    "methods": {}
  },
  "userdoc": {
    "methods": {}
  }
}